:1000000018C019C231C030C0EBC12EC0FFC22CC015
:100010002BC02BC029C028C027C026C025C024C0A3
:100020002FC042C243C244C287C294C2B7C2BDC23B
:10003000C2C211241FBECFE5D2E0DEBFCDBF10E0AB
:10004000A0E6B0E0EEEBF8E002C005900D92A2361B
:10005000B107D9F711E0A2E6B0E001C01D92AC3FB4
:10006000B107E1F7A9D329C4CBCF1F920F920FB6E6
:100070000F921124689A0F900FBE0F901F90189541
:100080001F920F920FB60F9211248F938091FB0154
:1000900080FF03C089B78D7F89BF80E48EB98091CE
:1000A000FB0182608093FB018FB18093FA018F91F5
:1000B0000F900FBE0F901F9018959AB390639ABB44
:1000C000D698DE9A880F880F8A658DB983E083BF42
:1000D00081E086BF8091FB0181608093FB0180916C
:1000E000FB018D7F8093FB018091FB018B7F8093CF
:1000F000FB011092FA010895D59AD6989BB39065AA
:100100009BBB880F880F88658DB98091FB018E7F1E
:100110008093FB018091FB018D7F8093FB01809197
:10012000FB018B7F8093FB011092FA0108952EB1A1
:1001300030E02F7030702115310539F08091FB01CE
:1001400084608093FB0180E008959091FB019D7F86
:100150009093FB019091FB019B7F9093FB018FB9E2
:100160008091FB0180FF06C088B7826088BF89B795
:10017000826089BF9091FB0181E092FD80E008954B
:100180008091FA0108958091FB0181FFFCCF0895D1
:1001900010922F011092F90182E0809330010895AE
:1001A00010922E0182E0809362000895D79ACF9832
:1001B000B99AD198D6980895F8941FBC8EB58260EC
:1001C0008EBD8EB588608EBD82E390E09BBD8ABDFA
:1001D00078940895F8941DBC1CBC882311F0619A92
:1001E00001C061988CB178940895882319F0E4DFF8
:1001F00081E002C01EBC80E0EDDF089582E085BF93
:10020000BA98C29A6E986C980895882321F0F6DF08
:100210008BB7806402C08BB78F7B8BBF089513BEF2
:1002200010BE12BE19BE88B7876088BF80B78F77AF
:1002300080BF80B78F7B80BF80B78F7D80BF80B746
:100240008F7E80BF0895615070408040904081F063
:10025000615070408040904059F0DC01CB01880F24
:10026000991FAA1FBB1F0197A109B1090197F1F7B7
:100270000895882319F080B7806202C080B78F7D0F
:1002800080BF80B70895DF93CF930F92CDB7DEB7CD
:10029000F8948983C4DF90B7916090BF93B798605A
:1002A00093BF93B7916093BF8981282F30E040E0DE
:1002B00050E060EA7FE080E090E0C2D2822F26BF6B
:1002C00063E0B2D28CBF78940F90CF91DF91089504
:1002D000EF92FF920F931F937B018C0181E0C9DFA6
:1002E000C801B701B0DF1F910F91FF90EF90089503
:1002F000EF92FF920F931F937B018C0180E0B9DF97
:10030000C801B701A0DF1F910F91FF90EF900895F2
:10031000882341F484B7877F84BF81B5886181BD1C
:1003200011BC089511BC81B5886181BD0895CF923B
:10033000DF92EF92FF920F931F93DF93CF9300D042
:1003400000D0CDB7DEB789834A8389816B837C83F4
:100350009ADF6B817C81062F172FEE24FF2422C0A9
:10036000F801C080D180C114D104B9F0D7FE0BC010
:10037000D094C194D108D394B601882777FD809595
:10038000982FB6DF0AC081E0C3DFB601882777FD6A
:100390008095982F9DDF80E0BBDF0894E11CF11C65
:1003A0000E5F1F4F8A8190E0E816F906CCF280E0DC
:1003B00060DF0F900F900F900F90CF91DF911F9102
:1003C0000F91FF90EF90DF90CF900895F89480E028
:1003D0009FDFDEDEE5DEEADE81E017DF7894089558
:1003E0001F920F920FB60F9211242F933F934F93AA
:1003F0005F936F937F938F939F93AF93BF93EF938D
:10040000FF9380E036DFFF91EF91BF91AF919F9115
:100410008F917F916F915F914F913F912F910F90AD
:100420000FBE0F901F901895882311F0C19A01C03C
:10043000C19888B3089578941F920F920FB60F92C7
:100440001124EF92FF920F931F932F933F934F939B
:100450005F936F937F938F939F93AF93BF93CF934C
:10046000DF93EF93FF9380E0C0DE80E045DE809174
:100470006200833021F080916200843009F490DEC4
:100480008DB180658DB985E552DE7DDEC091FA01C2
:100490008C2F4DDE78DEEC2FF0E0E830F10508F02F
:1004A00097C0EF5EFF4F099483E390C082E08EC057
:1004B0008091FA0180932F0180912F0138DE63DE55
:1004C0008091FA018093F9018091F901853618F441
:1004D0008091F90101C084E68093F9018091F901CE
:1004E00026DE51DEC0E0D0E01AC01091FA0100E033
:1004F000812F1DDE48DEE090FA01FF24E02AF12A78
:100500008E2D15DE40DEC70162E370E07BD12196BF
:10051000FE01EE0FFF1FE15DFE4F9183808380910E
:10052000F90190E0C817D90704F386E100DE2BDE5D
:1005300086E0809330014CC080916200853061F587
:1005400081E0F5DD20DE80912E01F1DD1CDE80E012
:100550006BDF3EC0809162008530F1F480912E0106
:10056000E6DD11DEC0E0D0E00EC0FE01EE0FFF1FA1
:10057000EA59FF4F00811181812FD9DD04DE802FE0
:10058000D6DD01DE219680912E0190E0C817D907B3
:1005900064F306DE86E11AC08FEF18C080E044DF06
:1005A000FFDD81E08093630011C01092630080E062
:1005B0003BDF80E00BC08091600090916100892F4B
:1005C000B6DDE1DD8091600090916100B0DDDBDDA2
:1005D0006E986C988091630008DED698D598FF914C
:1005E000EF91DF91CF91BF91AF919F918F917F91CB
:1005F0006F915F914F913F912F911F910F91FF90BC
:10060000EF900F900FBE0F901F9018951F920F92B2
:100610000FB60F9211242F933F934F935F936F93D5
:100620007F938F939F93AF93BF93EF93FF9389B380
:1006300021E081FD20E080916400909165000196A9
:10064000909365008093640080912E01843618F0A9
:1006500085E080936200809162008330D1F0843025
:1006600020F4823009F060C006C0843071F185301A
:1006700009F05AC053C0213009F056C0809164007F
:10068000909165008436910508F44AC010922E01BD
:100690001EC0222309F048C020912E01E22FF0E075
:1006A0008091640090916500EE0FFF1FEA59FF4FA3
:1006B000918380832F5F20932E011092650010920A
:1006C000640084E0809362002FC02130D1F4209137
:1006D0002E01E22FF0E080916400909165009095EA
:1006E00081959F4FEE0FFF1FEA59FF4F9183808343
:1006F0002F5F20932E01109265001092640083E01A
:10070000E1CF80916400909165008536910560F09D
:1007100085E08093620081E087DE06C0213021F40D
:100720001092650010926400FF91EF91BF91AF911C
:100730009F918F917F916F915F914F913F912F91F9
:100740000F900FBE0F901F90189586B3827008957A
:1007500089B38270089586B384700895CF9300970B
:1007600031F140E050E02FEF3FEF68E074E8FA012C
:100770004F5F5F4FE491F0E0C8E0D901AE27BF279B
:1007800036952795A0FF02C026273727C15019F0BC
:10079000F695E795F2CF4817590749F72095309518
:1007A000922F8827232F3327282B392B02C020E0B4
:1007B00030E0C901CF9108958DE594E0880F991F2D
:1007C000CDDF909361008093600000DE8091300166
:1007D0008630E1F780E009DD80E017DD80912F01B0
:1007E0004091F90161E371E0A2DD86B382FFFDCFA4
:1007F000CFDC80916300882311F081E0F6DC81E09A
:1008000004DDE4CF5527002480FF02C0060E571FE9
:10081000660F771F6115710521F0969587950097F2
:1008200099F7952F802D0895991B79E004C0991FA1
:10083000961708F0961B881F7A95C9F7809508953A
:1008400097FB092E05260ED057FD04D014D00AD0F0
:10085000001C38F450954095309521953F4F4F4FEF
:100860005F4F0895F6F790958095709561957F4F4D
:100870008F4F9F4F0895A1E21A2EAA1BBB1BFD01AB
:100880000DC0AA1FBB1FEE1FFF1FA217B307E4076F
:10089000F50720F0A21BB30BE40BF50B661F771FC7
:1008A000881F991F1A9469F76095709580959095A7
:0E08B0009B01AC01BD01CF010895F894FFCF6C
:0208BE00FFFF3A
:00000001FF
